{
  "contractName": "Faucet",
  "abi": [
    {
      "inputs": [],
      "name": "numOfFunders",
      "outputs": [
        {
          "internalType": "uint256",
          "name": "",
          "type": "uint256"
        }
      ],
      "stateMutability": "view",
      "type": "function"
    },
    {
      "inputs": [],
      "name": "owner",
      "outputs": [
        {
          "internalType": "address",
          "name": "",
          "type": "address"
        }
      ],
      "stateMutability": "view",
      "type": "function"
    },
    {
      "stateMutability": "payable",
      "type": "receive"
    },
    {
      "inputs": [
        {
          "internalType": "address",
          "name": "newOwner",
          "type": "address"
        }
      ],
      "name": "transferOwnership",
      "outputs": [],
      "stateMutability": "nonpayable",
      "type": "function"
    },
    {
      "inputs": [],
      "name": "emitLog",
      "outputs": [
        {
          "internalType": "bytes32",
          "name": "",
          "type": "bytes32"
        }
      ],
      "stateMutability": "pure",
      "type": "function"
    },
    {
      "inputs": [],
      "name": "addFunds",
      "outputs": [],
      "stateMutability": "payable",
      "type": "function"
    },
    {
      "inputs": [
        {
          "internalType": "uint256",
          "name": "amount",
          "type": "uint256"
        }
      ],
      "name": "withdraw",
      "outputs": [],
      "stateMutability": "nonpayable",
      "type": "function"
    },
    {
      "inputs": [],
      "name": "getAllFunders",
      "outputs": [
        {
          "internalType": "address[]",
          "name": "",
          "type": "address[]"
        }
      ],
      "stateMutability": "view",
      "type": "function"
    },
    {
      "inputs": [
        {
          "internalType": "uint8",
          "name": "index",
          "type": "uint8"
        }
      ],
      "name": "getFunderAtIndex",
      "outputs": [
        {
          "internalType": "address",
          "name": "",
          "type": "address"
        }
      ],
      "stateMutability": "view",
      "type": "function"
    }
  ],
  "bytecode": "0x608060405234801561001057600080fd5b50336000806101000a81548173ffffffffffffffffffffffffffffffffffffffff021916908373ffffffffffffffffffffffffffffffffffffffff160217905550610adf806100606000396000f3fe60806040526004361061007f5760003560e01c8063a26759cb1161004e578063a26759cb14610147578063af7f2c9b14610151578063f2fde38b1461017c578063f42c13bf146101a557610086565b80630a93cf331461008b5780632e1a7d4d146100c85780636fbbb55d146100f15780638da5cb5b1461011c57610086565b3661008657005b600080fd5b34801561009757600080fd5b506100b260048036038101906100ad919061061c565b6101d0565b6040516100bf919061068a565b60405180910390f35b3480156100d457600080fd5b506100ef60048036038101906100ea91906106db565b610210565b005b3480156100fd57600080fd5b506101066102a7565b60405161011391906107c6565b60405180910390f35b34801561012857600080fd5b506101316103a1565b60405161013e919061068a565b60405180910390f35b61014f6103c5565b005b34801561015d57600080fd5b506101666104df565b60405161017391906107f7565b60405180910390f35b34801561018857600080fd5b506101a3600480360381019061019e919061083e565b6104e5565b005b3480156101b157600080fd5b506101ba6105b6565b6040516101c79190610884565b60405180910390f35b6000600360008360ff16815260200190815260200160002060009054906101000a900473ffffffffffffffffffffffffffffffffffffffff169050919050565b80670de0b6b3a764000081111561025c576040517f08c379a000000000000000000000000000000000000000000000000000000000815260040161025390610922565b60405180910390fd5b3373ffffffffffffffffffffffffffffffffffffffff166108fc839081150290604051600060405180830381858888f193505050501580156102a2573d6000803e3d6000fd5b505050565b6060600060015467ffffffffffffffff8111156102c7576102c6610942565b5b6040519080825280602002602001820160405280156102f55781602001602082028036833780820191505090505b50905060005b600154811015610399576003600082815260200190815260200160002060009054906101000a900473ffffffffffffffffffffffffffffffffffffffff1682828151811061034c5761034b610971565b5b602002602001019073ffffffffffffffffffffffffffffffffffffffff16908173ffffffffffffffffffffffffffffffffffffffff16815250508080610391906109cf565b9150506102fb565b508091505090565b60008054906101000a900473ffffffffffffffffffffffffffffffffffffffff1681565b6000339050600260008273ffffffffffffffffffffffffffffffffffffffff1673ffffffffffffffffffffffffffffffffffffffff16815260200190815260200160002060009054906101000a900460ff166104dc57806003600060016000815480929190610433906109cf565b91905055815260200190815260200160002060006101000a81548173ffffffffffffffffffffffffffffffffffffffff021916908373ffffffffffffffffffffffffffffffffffffffff1602179055506001600260008373ffffffffffffffffffffffffffffffffffffffff1673ffffffffffffffffffffffffffffffffffffffff16815260200190815260200160002060006101000a81548160ff0219169083151502179055505b50565b60015481565b60008054906101000a900473ffffffffffffffffffffffffffffffffffffffff1673ffffffffffffffffffffffffffffffffffffffff163373ffffffffffffffffffffffffffffffffffffffff1614610573576040517f08c379a000000000000000000000000000000000000000000000000000000000815260040161056a90610a89565b60405180910390fd5b806000806101000a81548173ffffffffffffffffffffffffffffffffffffffff021916908373ffffffffffffffffffffffffffffffffffffffff16021790555050565b60007f6173646173640000000000000000000000000000000000000000000000000000905090565b600080fd5b600060ff82169050919050565b6105f9816105e3565b811461060457600080fd5b50565b600081359050610616816105f0565b92915050565b600060208284031215610632576106316105de565b5b600061064084828501610607565b91505092915050565b600073ffffffffffffffffffffffffffffffffffffffff82169050919050565b600061067482610649565b9050919050565b61068481610669565b82525050565b600060208201905061069f600083018461067b565b92915050565b6000819050919050565b6106b8816106a5565b81146106c357600080fd5b50565b6000813590506106d5816106af565b92915050565b6000602082840312156106f1576106f06105de565b5b60006106ff848285016106c6565b91505092915050565b600081519050919050565b600082825260208201905092915050565b6000819050602082019050919050565b61073d81610669565b82525050565b600061074f8383610734565b60208301905092915050565b6000602082019050919050565b600061077382610708565b61077d8185610713565b935061078883610724565b8060005b838110156107b95781516107a08882610743565b97506107ab8361075b565b92505060018101905061078c565b5085935050505092915050565b600060208201905081810360008301526107e08184610768565b905092915050565b6107f1816106a5565b82525050565b600060208201905061080c60008301846107e8565b92915050565b61081b81610669565b811461082657600080fd5b50565b60008135905061083881610812565b92915050565b600060208284031215610854576108536105de565b5b600061086284828501610829565b91505092915050565b6000819050919050565b61087e8161086b565b82525050565b60006020820190506108996000830184610875565b92915050565b600082825260208201905092915050565b7f43616e6e6f74207769746864726177206d6f7265207468616e20302e3120657460008201527f6865720000000000000000000000000000000000000000000000000000000000602082015250565b600061090c60238361089f565b9150610917826108b0565b604082019050919050565b6000602082019050818103600083015261093b816108ff565b9050919050565b7f4e487b7100000000000000000000000000000000000000000000000000000000600052604160045260246000fd5b7f4e487b7100000000000000000000000000000000000000000000000000000000600052603260045260246000fd5b7f4e487b7100000000000000000000000000000000000000000000000000000000600052601160045260246000fd5b60006109da826106a5565b91507fffffffffffffffffffffffffffffffffffffffffffffffffffffffffffffffff8203610a0c57610a0b6109a0565b5b600182019050919050565b7f4f6e6c79206f776e65722063616e2063616c6c20746869732066756e6374696f60008201527f6e00000000000000000000000000000000000000000000000000000000000000602082015250565b6000610a7360218361089f565b9150610a7e82610a17565b604082019050919050565b60006020820190508181036000830152610aa281610a66565b905091905056fea2646970667358221220768852b71697348baf6611eca7f37741ca4e683b61c43791cdeaea731bafb27264736f6c634300080e0033",
  "immutableReferences": {},
  "source": "// SPDX-License-Identifier: MIT\npragma solidity >=0.8.0 <0.9.0;\n\nimport './Owned.sol';\nimport './Logger.sol';\nimport './IFaucet.sol';\n\ncontract Faucet is Owned, Logger, IFaucet {\n  uint public numOfFunders;\n\n  mapping(address => bool) private funders;\n  mapping(uint => address) private lutFunders;\n\n  modifier limitWithdraw(uint amount) {\n    require(amount <= 1000000000000000000, 'Cannot withdraw more than 0.1 ether');\n    _;\n  }\n\n  receive() external payable {}\n\n  function transferOwnership(address newOwner) external onlyOwner {\n    owner = newOwner;\n  }\n\n  function emitLog() public override pure returns (bytes32) {\n    return \"asdasd\";\n  }\n\n  function addFunds() override external payable {\n    address funder = msg.sender;\n\n    if (!funders[funder]) {\n      lutFunders[numOfFunders++] = funder;\n      funders[funder] = true;\n    }\n  }\n\n  function withdraw(uint amount) override external limitWithdraw(amount) {\n    payable(msg.sender).transfer(amount);\n  }\n\n  function getAllFunders() external view returns (address[] memory) {\n    address[] memory _funders = new address[](numOfFunders);\n\n    for (uint i = 0; i < numOfFunders; i++) {\n      _funders[i] = lutFunders[i];\n    }\n\n    return _funders;\n  }\n\n  function getFunderAtIndex(uint8 index) external view returns (address) {\n    return lutFunders[index];\n  }\n}\n\n// const instance = await Faucet.deployed()\n// instance.addFunds({ from: accounts[0], value: \"200000000\" })\n// instance.addFunds({ from: accounts[1], value: \"200000000\" })\n// instance.getFunderAtIndex(0)\n// instance.getAllFunders()\n",
  "sourcePath": "/Users/dolgov.denis/projects/blockchain/faucet/contracts/FaucetContract.sol",
  "compiler": {
    "name": "solc",
    "version": "0.8.14+commit.80d49f37.Emscripten.clang"
  },
  "schemaVersion": "3.4.7",
  "updatedAt": "2022-08-15T16:18:20.005Z",
  "devdoc": {
    "kind": "dev",
    "methods": {},
    "version": 1
  },
  "userdoc": {
    "kind": "user",
    "methods": {},
    "version": 1
  }
}